:1000000051C0DEC16AC069C068C067C066C065C053
:1000100064C063C062C061C060C05FC05EC00403F2
:1000200009040C0343004800520049005300100328
:100030004E00450053002D004A004F0059001201A8
:10004000100100000008424231E1000101020001FC
:1000500009022200010100803209040000010300AE
:100060000000092101010001223100070581030878
:10007000000A05010905A1010901A10009300931A2
:10008000150026FF00750895028102C005091901B7
:100090002904150025017501950481027501950457
:1000A0008103C00011241FBECFE5D1E0DEBFCDBF6C
:1000B00010E0A0E6B0E0EAE7F8E002C005900D929B
:1000C000A236B107D9F710E0A2E6B0E001C01D9258
:1000D000A03AB107E1F734D3CEC392CF85B783609E
:1000E00085BF8BB780648BBF8BE4809376008AE5F5
:1000F0008093750008951F93DC01162F8091750081
:1001000084FF07C08091760098E889278093760065
:1001100003C08AE580937500912FE7E7F0E08D91A9
:10012000819391501916DCF387E790E0612F31D16C
:100130001C5F109375001F9108951F93CF93DF9359
:1001400090918600935097FDA5C0209183008091E7
:1001500082008D3209F09CC0983009F099C0CCE043
:10016000D0E0C21BD109C657DF4F83EC80936A00F1
:100170008AE580936000109263008881807621F088
:10018000CE01BAD2282F7BC09A8110927300898148
:10019000882321F41092740022E06BC0853019F49A
:1001A0009093870065C0863009F04EC08B81813006
:1001B00041F48EE390E0909385008093840022E1E7
:1001C0003FC0823041F480E590E0909385008093B9
:1001D000840022E235C08330F1F4992341F48EE1AA
:1001E00090E0909385008093840024E029C09130B2
:1001F00041F482E290E090938500809384002CE0AB
:100200001FC09230E1F48EE290E0909385008093DD
:10021000840020E115C0813241F482E690E09093A1
:1002200085008093840029E00BC0823241F482E78C
:1002300090E0909385008093840021E301C020E04A
:1002400080E4809363001BC0883021F421E089E8BA
:1002500090E011C0893019F49093890009C08A3068
:1002600011F421E006C08B3019F48BE48093760002
:1002700020E083E790E090938500809384008F8155
:10028000882321F48E81821708F4282F209361009F
:10029000109286008091600084FF49C080916100C7
:1002A0008F3F09F444C0182F893008F018E0811BF3
:1002B0008093610080916A0098E8892780936A00A2
:1002C000112341F1209184003091850080916300D9
:1002D00086FF0DC0ABE6B0E080E090E0F901E80FEA
:1002E000F91FE491ED9301961817C1F708C0912FFB
:1002F000D901EBE6F0E08D9181939150E1F7115037
:10030000812F90E01F5F0196820F931F90938500CD
:10031000809384008BE690E0612F3BD0612F6C5F6F
:100320006C3019F08FEF809361006093600094E16E
:1003300086B3857031F49150D9F7109287001092EE
:10034000810010E0992309F411E080916200811787
:1003500039F0112319F4F89440D278941093620084
:10036000DF91CF911F910895A82FB92F80E090E0E1
:1003700041E050EA60956F5F58F42D9138EF822785
:100380009795879510F0842795273F5FC8F3F3CFA3
:100390000895EADF8D939D930895A6E08827992715
:1003A000AA9569F00197E1F3B099FCCFB09BFECF1D
:1003B00081E09927A6B3019611F0A570D9F70895A9
:1003C000CF93CFB7CF93C395B09BE9F7B09B0BC04A
:1003D000B09B09C0B09B07C0B09B05C0B09B03C0D9
:1003E000B09B01C0D5C00F92DF93C0918300DD2781
:1003F000C657DF4F012EB09B03C0DF910F90E6CFB1
:100400002F930F931F934F932FEF4F6F06B300FB64
:1004100020F95F933F9350E03BE065C016B301269F
:10042000502950FDC89556B3012700FB25F92F73BD
:1004300006B3B1F05027102710FB26F906B2223080
:10044000F0F000C016B3012700FB27F90126502960
:1004500006B22430E8F54F77206816B30000F6CFD7
:1004600050274F7D206206B2102F000000C006B357
:1004700000265029102710FB26F906B2E2CF4F7B49
:1004800006B3206400C0DACF01265029157006B2E9
:1004900069F14E7F2160012F16B328C00026502934
:1004A0004D7F06B22260102F29C0012650294B7FB4
:1004B00006B22460012F2DC016B301265029477FB4
:1004C0002860000006B22EC04F7E06B3206130C007
:1004D000422706B3499300265029102706B24FEF52
:1004E00010FB20F9297F16B379F2157059F1012616
:1004F000502906B2012700FB21F9237F06B371F2D0
:10050000002650293150D0F006B2102710FB22F9F6
:10051000277E16B351F201265029012700FB06B2AF
:1005200023F92F7C49F2000006B3102710FB24F9B1
:100530000026502906B22F7939F270CF10E41ABF85
:10054000002719C03B503195C31BD04010E41ABF9F
:100550000881033C09F10B34F9F0209181001981E5
:10056000110F1213EDCF4A81441F093651F10D329C
:1005700011F0013E29F7009388003F915F914F9160
:100580001F910F912F91DF910F90CAB7C6FD1BCF1E
:10059000CF91CFBFCF91189520918800222369F386
:1005A00010918600112379F534307AF1309386006A
:1005B00020938200109183003BE0311B3093830035
:1005C00024C0009186000130F4F40AE54F7049F42C
:1005D0003091600034FD1AC000936000CAE6D0E09C
:1005E00019C03091750034FD11C000937500C6E745
:1005F000D0E010C0052710E000C021C0052710E0A2
:10060000C89508BB14C03AE501C032ED032EC0E026
:10061000D0E032E017B31560C09A08B317BB55E0BD
:1006200020E84FEF20FF052708BB279517951C3FB3
:1006300028F700004552B0F720FF0527279508BB93
:1006400017951C3FB8F629913A9561F70A7F1091EA
:100650008700110F08BBC250D04011F010938100E9
:1006600010E41ABF016017B31A7F402F4A7F54E08D
:100670005A95F1F708BB17BB48BB7FCF6091640068
:10068000462F50E060FD03C020E830E002C02FEFAD
:1006900030E041FF02C020E030E042FD03C080E8CE
:1006A00090E002C08FEF90E043FF02C080E090E056
:1006B0002093660080936700CA0180749070E5E023
:1006C00095958795EA95E1F79A012072307073E06D
:1006D000359527957A95E1F7822B262F221F222721
:1006E000221F822B4071507055954795842B809323
:1006F0006800609365000895FC0186E690E09093A1
:10070000850080938400808180768032B9F4818175
:10071000813019F4B3DF83E00895823041F489E633
:1007200090E0909385008093840081E008958A3062
:1007300029F483818093690080E0089580E0089522
:100740000F931F93E199FECF1EBAE09A8DB38F3FAE
:1007500009F081BF85E087BB18BA24E143EB51EF74
:10076000CA010197F1F72150D9F78AE087BB2EE043
:1007700088E190E00FB6F894A89581BD0FBE21BD29
:10078000ADDC789402E411E2A895D7DCC39A802FFF
:100790008A95F1F7C39830E080E090E0212F2A9508
:1007A000F1F7C198330FB49B3160212F2A95F1F7EF
:1007B000C19A01968830910589F730936400809141
:1007C000750084FFE1CF809165003817E9F256DFAC
:1007D00086E690E063E08FDCD7CFEF92FF920F9335
:1007E0001F93CF93DF93F0E8FF2E00E0C0E0D0E04E
:1007F000102F1F0D11BFD1DD9C0189E02433380774
:100800000CF0102FF6942196C830D10511F0012F6D
:10081000EFCF115011BF1F5F7901C12FD0E021969A
:1008200010C0BBDD8453994097FF03C0909581951C
:100830009F4F8E159F0514F411B77C0181B78F5F10
:1008400081BF81B790E0C817D9075CF711BFDF916E
:10085000CF911F910F91FF90EF900895BEDF81B768
:10086000E199FECF1CBA1EBA8DBB0FB6F894E29A7E
:0A087000E19A0FBE0895F894FFCF3F
:02087A005AFF23
:00000001FF
